:100000000C9434000C9451000C9451000C94510049
:100010000C9451000C9451000C9451000C9451001C
:100020000C9451000C9451000C9451000C9451000C
:100030000C9451000C9451000C9453000C945100FA
:100040000C9451000C9451000C9451000C945100EC
:100050000C9451000C9451000C9451000C945100DC
:100060000C9451000C94510011241FBECFEFD4E02A
:10007000DEBFCDBF11E0A0E0B1E0E2E0F4E002C0FD
:1000800005900D92A230B107D9F712E0A2E0B1E0DD
:1000900001C01D92A934B107E1F70E94E1010C945F
:1000A00000020C9400001F920F920FB60F921124C1
:1000B0002F933F934F938F939F93EF93FF93809151
:1000C00003018F5F809303018F30B8F0109203011A
:1000D000809102018F5F80930201893128F0109294
:1000E000020184E091E005C080910001909101013E
:1000F0000D96909301018093000130910301432FED
:100100004295407FE0910001F091010190E08485EB
:100110008F70381708F491E09EBD93853A96892F29
:100120008F70381710F420E401C020E0907F491749
:1001300008F4206890813197892F8F70381708F460
:100140002061907F491708F4206290813197892FB0
:100150008F70381708F42460907F491708F42860DE
:1001600090813197892F8F70381708F42160907F24
:10017000491708F422600DB407FEFDCF2EBD908113
:100180003197892F8F70381710F420E401C020E0D8
:10019000907F491708F4206890813197892F8F70DC
:1001A000381708F42061907F491708F42062908185
:1001B0003197892F8F70381708F42460907F491782
:1001C00008F4286090813197892F8F70381708F4D0
:1001D0002160907F491708F422600DB407FEFDCF1F
:1001E0002EBD90813197892F8F70381710F420E43D
:1001F00001C020E0907F491708F420689081319772
:10020000892F8F70381708F42061907F491708F400
:1002100020629081892F8F70381708F42460907FB6
:10022000491708F4286031979081892F8F7038170B
:1002300008F42160907F491708F422600DB407FE8E
:10024000FDCF2EBD809102018F3010F48F5F03C06F
:100250008E508295807F0DB407FEFDCF1BB8299A82
:100260008BB92998FF91EF919F918F914F913F9179
:100270002F910F900FBE0F901F9018958EE284B9AA
:100280008FEF8AB91BB880E58CBD81E08DBD92E00F
:1002900094BD95BD89E287BD90936E0080E01EBC41
:1002A0000DB407FEFDCF8F5F8430C9F7089598B174
:1002B000906398B990E0880F991F8093BA008FEFF0
:1002C0008093BB0084EC8093BC008091BC0080FDD7
:1002D000FCCF08958091BC0087FFFCCF8091B900CE
:1002E0008838E9F0893838F48037B9F0803879F007
:1002F0008036C9F412C0883991F0893918F48039F0
:1003000091F405C0803A49F0883F69F4E3CF9091B9
:10031000BB0084EC8093BC000EC084EC01C084E878
:100320008093BC00D7CF84ED8093BC008091BC004B
:1003300084FDFCCF9FEF892F90E00895CF92DF924C
:10034000EF92FF921F93CF93DF93C4E0D1E010E0D0
:10035000EE24FF246E0106C0E60116E0EE24FF2421
:1003600001C010E00E946A01163008F5112321F443
:100370008E3DB9F711E0F6CF113021F48D3A89F7AF
:1003800012E0F0CF123021F48E3B59F713E0EACFA0
:10039000133021F48F3E29F714E0E4CF143021F418
:1003A0008130F9F615E0DECF1530D9F6D5CF899337
:1003B0000894E11CF11C85E4E81681E0F8068CF64F
:1003C000D1CF289A8FE388B91092C1000E943E01D4
:1003D00082E20E9457017894E4E0F1E090E09E5FB1
:1003E0009F70892F8F5F8295807F890F819382E034
:1003F000E934F807A1F70E949E0180E090E008959B
:02040000FFCF2C
:020402000401F3
:00000001FF
